{
  "_format": "hh-sol-artifact-1",
  "contractName": "FSToken",
  "sourceName": "contracts/FSToken.sol",
  "abi": [
    {
      "inputs": [
        {
          "internalType": "uint256",
          "name": "_initialSupply",
          "type": "uint256"
        },
        {
          "internalType": "uint256",
          "name": "_price",
          "type": "uint256"
        }
      ],
      "stateMutability": "nonpayable",
      "type": "constructor"
    },
    {
      "anonymous": false,
      "inputs": [
        {
          "indexed": true,
          "internalType": "address",
          "name": "_from",
          "type": "address"
        },
        {
          "indexed": true,
          "internalType": "address",
          "name": "_to",
          "type": "address"
        },
        {
          "indexed": false,
          "internalType": "uint256",
          "name": "_value",
          "type": "uint256"
        }
      ],
      "name": "Transfer",
      "type": "event"
    },
    {
      "inputs": [],
      "name": "admin",
      "outputs": [
        {
          "internalType": "address",
          "name": "",
          "type": "address"
        }
      ],
      "stateMutability": "view",
      "type": "function"
    },
    {
      "inputs": [
        {
          "internalType": "address",
          "name": "",
          "type": "address"
        }
      ],
      "name": "balanceOf",
      "outputs": [
        {
          "internalType": "uint256",
          "name": "",
          "type": "uint256"
        }
      ],
      "stateMutability": "view",
      "type": "function"
    },
    {
      "inputs": [],
      "name": "checkBalance",
      "outputs": [
        {
          "internalType": "uint256",
          "name": "",
          "type": "uint256"
        }
      ],
      "stateMutability": "view",
      "type": "function"
    },
    {
      "inputs": [],
      "name": "getTokenPrice",
      "outputs": [
        {
          "internalType": "uint256",
          "name": "",
          "type": "uint256"
        }
      ],
      "stateMutability": "view",
      "type": "function"
    },
    {
      "inputs": [],
      "name": "name",
      "outputs": [
        {
          "internalType": "string",
          "name": "",
          "type": "string"
        }
      ],
      "stateMutability": "view",
      "type": "function"
    },
    {
      "inputs": [],
      "name": "symbol",
      "outputs": [
        {
          "internalType": "string",
          "name": "",
          "type": "string"
        }
      ],
      "stateMutability": "view",
      "type": "function"
    },
    {
      "inputs": [],
      "name": "tokensSold",
      "outputs": [
        {
          "internalType": "uint256",
          "name": "",
          "type": "uint256"
        }
      ],
      "stateMutability": "view",
      "type": "function"
    },
    {
      "inputs": [],
      "name": "totalSupply",
      "outputs": [
        {
          "internalType": "uint256",
          "name": "",
          "type": "uint256"
        }
      ],
      "stateMutability": "view",
      "type": "function"
    },
    {
      "inputs": [
        {
          "internalType": "address",
          "name": "_to",
          "type": "address"
        },
        {
          "internalType": "uint256",
          "name": "_value",
          "type": "uint256"
        }
      ],
      "name": "transfer",
      "outputs": [
        {
          "internalType": "bool",
          "name": "success",
          "type": "bool"
        }
      ],
      "stateMutability": "nonpayable",
      "type": "function"
    }
  ],
  "bytecode": "0x60806040526040518060400160405280601181526020017f4661637453746174696f6e20546f6b656e000000000000000000000000000000815250600090805190602001906200005192919062000190565b506040518060400160405280600381526020017f4653540000000000000000000000000000000000000000000000000000000000815250600190805190602001906200009f92919062000190565b50348015620000ad57600080fd5b5060405162000ceb38038062000ceb8339818101604052810190620000d3919062000257565b33600360006101000a81548173ffffffffffffffffffffffffffffffffffffffff021916908373ffffffffffffffffffffffffffffffffffffffff1602179055508160066000600360009054906101000a900473ffffffffffffffffffffffffffffffffffffffff1673ffffffffffffffffffffffffffffffffffffffff1673ffffffffffffffffffffffffffffffffffffffff16815260200190815260200160002081905550816002819055508060048190555050506200032c565b8280546200019e90620002a8565b90600052602060002090601f016020900481019282620001c257600085556200020e565b82601f10620001dd57805160ff19168380011785556200020e565b828001600101855582156200020e579182015b828111156200020d578251825591602001919060010190620001f0565b5b5090506200021d919062000221565b5090565b5b808211156200023c57600081600090555060010162000222565b5090565b600081519050620002518162000312565b92915050565b600080604083850312156200027157620002706200030d565b5b6000620002818582860162000240565b9250506020620002948582860162000240565b9150509250929050565b6000819050919050565b60006002820490506001821680620002c157607f821691505b60208210811415620002d857620002d7620002de565b5b50919050565b7f4e487b7100000000000000000000000000000000000000000000000000000000600052602260045260246000fd5b600080fd5b6200031d816200029e565b81146200032957600080fd5b50565b6109af806200033c6000396000f3fe608060405234801561001057600080fd5b50600436106100935760003560e01c806370a082311161006657806370a082311461011057806395d89b4114610140578063a9059cbb1461015e578063c71daccb1461018e578063f851a440146101ac57610093565b806306fdde031461009857806318160ddd146100b65780634b94f50e146100d4578063518ab2a8146100f2575b600080fd5b6100a06101ca565b6040516100ad91906106fe565b60405180910390f35b6100be610258565b6040516100cb9190610740565b60405180910390f35b6100dc61025e565b6040516100e99190610740565b60405180910390f35b6100fa610268565b6040516101079190610740565b60405180910390f35b61012a600480360381019061012591906105d2565b61026e565b6040516101379190610740565b60405180910390f35b610148610286565b60405161015591906106fe565b60405180910390f35b610178600480360381019061017391906105ff565b610314565b60405161018591906106e3565b60405180910390f35b610196610519565b6040516101a39190610740565b60405180910390f35b6101b4610582565b6040516101c191906106c8565b60405180910390f35b600080546101d79061087c565b80601f01602080910402602001604051908101604052809291908181526020018280546102039061087c565b80156102505780601f1061022557610100808354040283529160200191610250565b820191906000526020600020905b81548152906001019060200180831161023357829003601f168201915b505050505081565b60025481565b6000600454905090565b60055481565b60066020528060005260406000206000915090505481565b600180546102939061087c565b80601f01602080910402602001604051908101604052809291908181526020018280546102bf9061087c565b801561030c5780601f106102e15761010080835404028352916020019161030c565b820191906000526020600020905b8154815290600101906020018083116102ef57829003601f168201915b505050505081565b60008160066000600360009054906101000a900473ffffffffffffffffffffffffffffffffffffffff1673ffffffffffffffffffffffffffffffffffffffff1673ffffffffffffffffffffffffffffffffffffffff1681526020019081526020016000205410156103ba576040517f08c379a00000000000000000000000000000000000000000000000000000000081526004016103b190610720565b60405180910390fd5b8160066000600360009054906101000a900473ffffffffffffffffffffffffffffffffffffffff1673ffffffffffffffffffffffffffffffffffffffff1673ffffffffffffffffffffffffffffffffffffffff168152602001908152602001600020600082825461042b91906107cd565b9250508190555081600660008573ffffffffffffffffffffffffffffffffffffffff1673ffffffffffffffffffffffffffffffffffffffff16815260200190815260200160002060008282546104819190610777565b925050819055508273ffffffffffffffffffffffffffffffffffffffff16600360009054906101000a900473ffffffffffffffffffffffffffffffffffffffff1673ffffffffffffffffffffffffffffffffffffffff167fddf252ad1be2c89b69c2b068fc378daa952ba7f163c4a11628f55a4df523b3ef846040516105079190610740565b60405180910390a36001905092915050565b600060066000600360009054906101000a900473ffffffffffffffffffffffffffffffffffffffff1673ffffffffffffffffffffffffffffffffffffffff1673ffffffffffffffffffffffffffffffffffffffff16815260200190815260200160002054905090565b600360009054906101000a900473ffffffffffffffffffffffffffffffffffffffff1681565b6000813590506105b78161094b565b92915050565b6000813590506105cc81610962565b92915050565b6000602082840312156105e8576105e761090c565b5b60006105f6848285016105a8565b91505092915050565b600080604083850312156106165761061561090c565b5b6000610624858286016105a8565b9250506020610635858286016105bd565b9150509250929050565b61064881610801565b82525050565b61065781610813565b82525050565b60006106688261075b565b6106728185610766565b9350610682818560208601610849565b61068b81610911565b840191505092915050565b60006106a3600383610766565b91506106ae82610922565b602082019050919050565b6106c28161083f565b82525050565b60006020820190506106dd600083018461063f565b92915050565b60006020820190506106f8600083018461064e565b92915050565b60006020820190508181036000830152610718818461065d565b905092915050565b6000602082019050818103600083015261073981610696565b9050919050565b600060208201905061075560008301846106b9565b92915050565b600081519050919050565b600082825260208201905092915050565b60006107828261083f565b915061078d8361083f565b9250827fffffffffffffffffffffffffffffffffffffffffffffffffffffffffffffffff038211156107c2576107c16108ae565b5b828201905092915050565b60006107d88261083f565b91506107e38361083f565b9250828210156107f6576107f56108ae565b5b828203905092915050565b600061080c8261081f565b9050919050565b60008115159050919050565b600073ffffffffffffffffffffffffffffffffffffffff82169050919050565b6000819050919050565b60005b8381101561086757808201518184015260208101905061084c565b83811115610876576000848401525b50505050565b6000600282049050600182168061089457607f821691505b602082108114156108a8576108a76108dd565b5b50919050565b7f4e487b7100000000000000000000000000000000000000000000000000000000600052601160045260246000fd5b7f4e487b7100000000000000000000000000000000000000000000000000000000600052602260045260246000fd5b600080fd5b6000601f19601f8301169050919050565b7f78797a0000000000000000000000000000000000000000000000000000000000600082015250565b61095481610801565b811461095f57600080fd5b50565b61096b8161083f565b811461097657600080fd5b5056fea264697066735822122089b6f108ac2ff0a265c77c4468413aaa5882f9d4c05999d9658b2d2da110436264736f6c63430008070033",
  "linkReferences": {},
  "deployedLinkReferences": {}
}