{
  "_format": "hh-sol-artifact-1",
  "contractName": "FactStation",
  "sourceName": "contracts/FactStation.sol",
  "abi": [
    {
      "inputs": [],
      "stateMutability": "nonpayable",
      "type": "constructor"
    },
    {
      "anonymous": false,
      "inputs": [
        {
          "indexed": false,
          "internalType": "address",
          "name": "_buyer",
          "type": "address"
        },
        {
          "indexed": false,
          "internalType": "uint256",
          "name": "_amount",
          "type": "uint256"
        }
      ],
      "name": "Sell",
      "type": "event"
    },
    {
      "anonymous": false,
      "inputs": [
        {
          "indexed": true,
          "internalType": "uint256",
          "name": "_postId",
          "type": "uint256"
        },
        {
          "indexed": true,
          "internalType": "uint256",
          "name": "_totalVotes",
          "type": "uint256"
        }
      ],
      "name": "postCreated",
      "type": "event"
    },
    {
      "inputs": [
        {
          "internalType": "uint256",
          "name": "_numberOfTokens",
          "type": "uint256"
        }
      ],
      "name": "buyTokens",
      "outputs": [],
      "stateMutability": "payable",
      "type": "function"
    },
    {
      "inputs": [
        {
          "internalType": "string",
          "name": "_CID",
          "type": "string"
        },
        {
          "internalType": "uint256",
          "name": "_totalVotes",
          "type": "uint256"
        },
        {
          "internalType": "uint256",
          "name": "_yesVotes",
          "type": "uint256"
        },
        {
          "internalType": "uint256",
          "name": "_noVotes",
          "type": "uint256"
        }
      ],
      "name": "createPost",
      "outputs": [],
      "stateMutability": "nonpayable",
      "type": "function"
    },
    {
      "inputs": [
        {
          "internalType": "uint256",
          "name": "_id",
          "type": "uint256"
        }
      ],
      "name": "decision",
      "outputs": [],
      "stateMutability": "nonpayable",
      "type": "function"
    },
    {
      "inputs": [],
      "name": "expertIdCounter",
      "outputs": [
        {
          "internalType": "uint256",
          "name": "",
          "type": "uint256"
        }
      ],
      "stateMutability": "view",
      "type": "function"
    },
    {
      "inputs": [],
      "name": "getMyPostsIds",
      "outputs": [
        {
          "internalType": "uint256[]",
          "name": "",
          "type": "uint256[]"
        }
      ],
      "stateMutability": "view",
      "type": "function"
    },
    {
      "inputs": [
        {
          "internalType": "uint256",
          "name": "_id",
          "type": "uint256"
        }
      ],
      "name": "getMyVote",
      "outputs": [
        {
          "internalType": "uint256",
          "name": "",
          "type": "uint256"
        }
      ],
      "stateMutability": "view",
      "type": "function"
    },
    {
      "inputs": [],
      "name": "getMyVotedPostIds",
      "outputs": [
        {
          "internalType": "uint256[]",
          "name": "",
          "type": "uint256[]"
        }
      ],
      "stateMutability": "view",
      "type": "function"
    },
    {
      "inputs": [
        {
          "internalType": "uint256",
          "name": "_id",
          "type": "uint256"
        }
      ],
      "name": "getPost",
      "outputs": [
        {
          "components": [
            {
              "internalType": "uint256",
              "name": "postId",
              "type": "uint256"
            },
            {
              "internalType": "address",
              "name": "creator",
              "type": "address"
            },
            {
              "internalType": "uint256",
              "name": "timeCreated",
              "type": "uint256"
            },
            {
              "internalType": "uint256",
              "name": "closingTime",
              "type": "uint256"
            },
            {
              "internalType": "string",
              "name": "CID",
              "type": "string"
            },
            {
              "internalType": "uint256",
              "name": "totalVotes",
              "type": "uint256"
            },
            {
              "internalType": "uint256",
              "name": "yesVotes",
              "type": "uint256"
            },
            {
              "internalType": "uint256",
              "name": "noVotes",
              "type": "uint256"
            },
            {
              "internalType": "bool",
              "name": "isVerified",
              "type": "bool"
            },
            {
              "internalType": "string",
              "name": "status",
              "type": "string"
            }
          ],
          "internalType": "struct FactStation.Posts",
          "name": "",
          "type": "tuple"
        }
      ],
      "stateMutability": "view",
      "type": "function"
    },
    {
      "inputs": [],
      "name": "getTotalPosts",
      "outputs": [
        {
          "internalType": "uint256",
          "name": "",
          "type": "uint256"
        }
      ],
      "stateMutability": "view",
      "type": "function"
    },
    {
      "inputs": [],
      "name": "postIdCounter",
      "outputs": [
        {
          "internalType": "uint256",
          "name": "",
          "type": "uint256"
        }
      ],
      "stateMutability": "view",
      "type": "function"
    },
    {
      "inputs": [],
      "name": "tokensSold",
      "outputs": [
        {
          "internalType": "uint256",
          "name": "",
          "type": "uint256"
        }
      ],
      "stateMutability": "view",
      "type": "function"
    },
    {
      "inputs": [
        {
          "internalType": "uint256",
          "name": "_id",
          "type": "uint256"
        },
        {
          "internalType": "uint256",
          "name": "_status",
          "type": "uint256"
        }
      ],
      "name": "vote",
      "outputs": [],
      "stateMutability": "nonpayable",
      "type": "function"
    }
  ],
  "bytecode": "0x608060405260b4600a5573ca469fa3e69a66a4a4ae52f4df7c94d9c7fe6be7600c60006101000a81548173ffffffffffffffffffffffffffffffffffffffff021916908373ffffffffffffffffffffffffffffffffffffffff16021790555034801561006a57600080fd5b50336000806101000a81548173ffffffffffffffffffffffffffffffffffffffff021916908373ffffffffffffffffffffffffffffffffffffffff160217905550611d8a806100ba6000396000f3fe6080604052600436106100a75760003560e01c80636a571859116100645780636a571859146101b15780637f7b0fae146101dc578063a83a475c14610205578063a9f2a3061461022e578063b384abef14610259578063f76b404914610282576100a7565b80630d38f051146100ac5780633610724e146100d757806340731c24146100f357806340a8c42314610130578063518ab2a81461015b5780635fe226b414610186575b600080fd5b3480156100b857600080fd5b506100c16102bf565b6040516100ce91906117ef565b60405180910390f35b6100f160048036038101906100ec91906114a2565b610354565b005b3480156100ff57600080fd5b5061011a600480360381019061011591906114a2565b61072f565b60405161012791906118b1565b60405180910390f35b34801561013c57600080fd5b5061014561092e565b60405161015291906118d3565b60405180910390f35b34801561016757600080fd5b50610170610934565b60405161017d91906118d3565b60405180910390f35b34801561019257600080fd5b5061019b61093a565b6040516101a891906118d3565b60405180910390f35b3480156101bd57600080fd5b506101c6610944565b6040516101d391906118d3565b60405180910390f35b3480156101e857600080fd5b5061020360048036038101906101fe919061141f565b61094a565b005b34801561021157600080fd5b5061022c600480360381019061022791906114a2565b610b9b565b005b34801561023a57600080fd5b50610243610e1b565b60405161025091906117ef565b60405180910390f35b34801561026557600080fd5b50610280600480360381019061027b91906114fc565b610eb0565b005b34801561028e57600080fd5b506102a960048036038101906102a491906114a2565b6111db565b6040516102b691906118d3565b60405180910390f35b6060600660003373ffffffffffffffffffffffffffffffffffffffff1673ffffffffffffffffffffffffffffffffffffffff16815260200190815260200160002080548060200260200160405190810160405280929190818152602001828054801561034a57602002820191906000526020600020905b815481526020019060010190808311610336575b5050505050905090565b600c60009054906101000a900473ffffffffffffffffffffffffffffffffffffffff1673ffffffffffffffffffffffffffffffffffffffff16634b94f50e6040518163ffffffff1660e01b815260040160206040518083038186803b1580156103bc57600080fd5b505afa1580156103d0573d6000803e3d6000fd5b505050506040513d601f19601f820116820180604052508101906103f491906114cf565b816103ff9190611a31565b3414610440576040517f08c379a000000000000000000000000000000000000000000000000000000000815260040161043790611891565b60405180910390fd5b80600c60009054906101000a900473ffffffffffffffffffffffffffffffffffffffff1673ffffffffffffffffffffffffffffffffffffffff1663c71daccb6040518163ffffffff1660e01b815260040160206040518083038186803b1580156104a957600080fd5b505afa1580156104bd573d6000803e3d6000fd5b505050506040513d601f19601f820116820180604052508101906104e191906114cf565b1015610522576040517f08c379a000000000000000000000000000000000000000000000000000000000815260040161051990611851565b60405180910390fd5b600c60009054906101000a900473ffffffffffffffffffffffffffffffffffffffff1673ffffffffffffffffffffffffffffffffffffffff1663a9059cbb33836040518363ffffffff1660e01b815260040161057f9291906117c6565b602060405180830381600087803b15801561059957600080fd5b505af11580156105ad573d6000803e3d6000fd5b505050506040513d601f19601f820116820180604052508101906105d191906113f2565b5080600360008282546105e491906119aa565b925050819055507f5e5e995ce3133561afceaa51a9a154d5db228cd7525d34df5185582c18d3df09338260405161061c9291906117c6565b60405180910390a160016002600082825461063791906119aa565b92505081905550604051806040016040528060025481526020013373ffffffffffffffffffffffffffffffffffffffff168152506008600060025481526020019081526020016000206000820151816000015560208201518160010160006101000a81548173ffffffffffffffffffffffffffffffffffffffff021916908373ffffffffffffffffffffffffffffffffffffffff1602179055509050506001600460003373ffffffffffffffffffffffffffffffffffffffff1673ffffffffffffffffffffffffffffffffffffffff16815260200190815260200160002060006101000a81548160ff02191690831515021790555050565b610737611235565b6005600083815260200190815260200160002060405180610140016040529081600082015481526020016001820160009054906101000a900473ffffffffffffffffffffffffffffffffffffffff1673ffffffffffffffffffffffffffffffffffffffff1673ffffffffffffffffffffffffffffffffffffffff16815260200160028201548152602001600382015481526020016004820180546107da90611b15565b80601f016020809104026020016040519081016040528092919081815260200182805461080690611b15565b80156108535780601f1061082857610100808354040283529160200191610853565b820191906000526020600020905b81548152906001019060200180831161083657829003601f168201915b505050505081526020016005820154815260200160068201548152602001600782015481526020016008820160009054906101000a900460ff161515151581526020016009820180546108a590611b15565b80601f01602080910402602001604051908101604052809291908181526020018280546108d190611b15565b801561091e5780601f106108f35761010080835404028352916020019161091e565b820191906000526020600020905b81548152906001019060200180831161090157829003601f168201915b5050505050815250509050919050565b60025481565b60035481565b6000600154905090565b60015481565b600180600082825461095c91906119aa565b9250508190555060405180610140016040528060015481526020013373ffffffffffffffffffffffffffffffffffffffff168152602001428152602001600a54426109a791906119aa565b81526020018581526020018481526020018381526020018281526020016000151581526020016040518060400160405280600781526020017f50656e64696e67000000000000000000000000000000000000000000000000008152508152506005600060015481526020019081526020016000206000820151816000015560208201518160010160006101000a81548173ffffffffffffffffffffffffffffffffffffffff021916908373ffffffffffffffffffffffffffffffffffffffff16021790555060408201518160020155606082015181600301556080820151816004019080519060200190610a9c9291906112a0565b5060a0820151816005015560c0820151816006015560e082015181600701556101008201518160080160006101000a81548160ff021916908315150217905550610120820151816009019080519060200190610af99291906112a0565b50905050600660003373ffffffffffffffffffffffffffffffffffffffff1673ffffffffffffffffffffffffffffffffffffffff1681526020019081526020016000206001549080600181540180825580915050600190039060005260206000200160009091909190915055826001547fc396b8fdad1e5f78ba6abcfa6e1a1244dde7dd0d69b78d45d3ad8dbe35653a8e60405160405180910390a350505050565b600015156005600083815260200190815260200160002060080160009054906101000a900460ff16151514610c05576040517f08c379a0000000000000000000000000000000000000000000000000000000008152600401610bfc90611871565b60405180910390fd5b600060056000838152602001908152602001600020600501541415610c89576040518060400160405280600c81526020017f5175657374696f6e61626c650000000000000000000000000000000000000000815250600560008381526020019081526020016000206009019080519060200190610c839291906112a0565b50610de9565b6050606460056000848152602001908152602001600020600501546005600085815260200190815260200160002060060154610cc59190611a00565b610ccf9190611a31565b1115610d3a576040518060400160405280600881526020017f5665726966696564000000000000000000000000000000000000000000000000815250600560008381526020019081526020016000206009019080519060200190610d349291906112a0565b50610de8565b6050606460056000848152602001908152602001600020600501546005600085815260200190815260200160002060070154610d769190611a00565b610d809190611a31565b1115610de7576040518060400160405280600481526020017f46616b6500000000000000000000000000000000000000000000000000000000815250600560008381526020019081526020016000206009019080519060200190610de59291906112a0565b505b5b5b60016005600083815260200190815260200160002060080160006101000a81548160ff02191690831515021790555050565b6060600760003373ffffffffffffffffffffffffffffffffffffffff1673ffffffffffffffffffffffffffffffffffffffff168152602001908152602001600020805480602002602001604051908101604052809291908181526020018280548015610ea657602002820191906000526020600020905b815481526020019060010190808311610e92575b5050505050905090565b600460003373ffffffffffffffffffffffffffffffffffffffff1673ffffffffffffffffffffffffffffffffffffffff16815260200190815260200160002060009054906101000a900460ff16610f3c576040517f08c379a0000000000000000000000000000000000000000000000000000000008152600401610f3390611831565b60405180910390fd5b8160001515600b60003373ffffffffffffffffffffffffffffffffffffffff1673ffffffffffffffffffffffffffffffffffffffff168152602001908152602001600020600083815260200190815260200160002060009054906101000a900460ff16151514610fe1576040517f08c379a0000000000000000000000000000000000000000000000000000000008152600401610fd890611811565b60405180910390fd5b600182141561104b57600160056000858152602001908152602001600020600601600082825461101191906119aa565b92505081905550600160056000858152602001908152602001600020600501600082825461103f91906119aa565b925050819055506110b2565b60028214156110b157600160056000858152602001908152602001600020600701600082825461107b91906119aa565b9250508190555060016005600085815260200190815260200160002060050160008282546110a991906119aa565b925050819055505b5b600760003373ffffffffffffffffffffffffffffffffffffffff1673ffffffffffffffffffffffffffffffffffffffff16815260200190815260200160002083908060018154018082558091505060019003906000526020600020016000909190919091505581600960003373ffffffffffffffffffffffffffffffffffffffff1673ffffffffffffffffffffffffffffffffffffffff1681526020019081526020016000206000858152602001908152602001600020819055506001600b60003373ffffffffffffffffffffffffffffffffffffffff1673ffffffffffffffffffffffffffffffffffffffff168152602001908152602001600020600085815260200190815260200160002060006101000a81548160ff021916908315150217905550505050565b6000600960003373ffffffffffffffffffffffffffffffffffffffff1673ffffffffffffffffffffffffffffffffffffffff1681526020019081526020016000206000838152602001908152602001600020549050919050565b60405180610140016040528060008152602001600073ffffffffffffffffffffffffffffffffffffffff168152602001600081526020016000815260200160608152602001600081526020016000815260200160008152602001600015158152602001606081525090565b8280546112ac90611b15565b90600052602060002090601f0160209004810192826112ce5760008555611315565b82601f106112e757805160ff1916838001178555611315565b82800160010185558215611315579182015b828111156113145782518255916020019190600101906112f9565b5b5090506113229190611326565b5090565b5b8082111561133f576000816000905550600101611327565b5090565b600061135661135184611913565b6118ee565b90508281526020810184848401111561137257611371611c39565b5b61137d848285611ad3565b509392505050565b60008151905061139481611d26565b92915050565b600082601f8301126113af576113ae611c34565b5b81356113bf848260208601611343565b91505092915050565b6000813590506113d781611d3d565b92915050565b6000815190506113ec81611d3d565b92915050565b60006020828403121561140857611407611c43565b5b600061141684828501611385565b91505092915050565b6000806000806080858703121561143957611438611c43565b5b600085013567ffffffffffffffff81111561145757611456611c3e565b5b6114638782880161139a565b9450506020611474878288016113c8565b9350506040611485878288016113c8565b9250506060611496878288016113c8565b91505092959194509250565b6000602082840312156114b8576114b7611c43565b5b60006114c6848285016113c8565b91505092915050565b6000602082840312156114e5576114e4611c43565b5b60006114f3848285016113dd565b91505092915050565b6000806040838503121561151357611512611c43565b5b6000611521858286016113c8565b9250506020611532858286016113c8565b9150509250929050565b600061154883836117a8565b60208301905092915050565b61155d81611a8b565b82525050565b61156c81611a8b565b82525050565b600061157d82611954565b6115878185611977565b935061159283611944565b8060005b838110156115c35781516115aa888261153c565b97506115b58361196a565b925050600181019050611596565b5085935050505092915050565b6115d981611a9d565b82525050565b60006115ea8261195f565b6115f48185611988565b9350611604818560208601611ae2565b61160d81611c48565b840191505092915050565b6000611625601783611999565b915061163082611c59565b602082019050919050565b6000611648602083611999565b915061165382611c82565b602082019050919050565b600061166b601083611999565b915061167682611cab565b602082019050919050565b600061168e601983611999565b915061169982611cd4565b602082019050919050565b60006116b1601083611999565b91506116bc82611cfd565b602082019050919050565b6000610140830160008301516116e060008601826117a8565b5060208301516116f36020860182611554565b50604083015161170660408601826117a8565b50606083015161171960608601826117a8565b506080830151848203608086015261173182826115df565b91505060a083015161174660a08601826117a8565b5060c083015161175960c08601826117a8565b5060e083015161176c60e08601826117a8565b506101008301516117816101008601826115d0565b5061012083015184820361012086015261179b82826115df565b9150508091505092915050565b6117b181611ac9565b82525050565b6117c081611ac9565b82525050565b60006040820190506117db6000830185611563565b6117e860208301846117b7565b9392505050565b600060208201905081810360008301526118098184611572565b905092915050565b6000602082019050818103600083015261182a81611618565b9050919050565b6000602082019050818103600083015261184a8161163b565b9050919050565b6000602082019050818103600083015261186a8161165e565b9050919050565b6000602082019050818103600083015261188a81611681565b9050919050565b600060208201905081810360008301526118aa816116a4565b9050919050565b600060208201905081810360008301526118cb81846116c7565b905092915050565b60006020820190506118e860008301846117b7565b92915050565b60006118f8611909565b90506119048282611b47565b919050565b6000604051905090565b600067ffffffffffffffff82111561192e5761192d611c05565b5b61193782611c48565b9050602081019050919050565b6000819050602082019050919050565b600081519050919050565b600081519050919050565b6000602082019050919050565b600082825260208201905092915050565b600082825260208201905092915050565b600082825260208201905092915050565b60006119b582611ac9565b91506119c083611ac9565b9250827fffffffffffffffffffffffffffffffffffffffffffffffffffffffffffffffff038211156119f5576119f4611b78565b5b828201905092915050565b6000611a0b82611ac9565b9150611a1683611ac9565b925082611a2657611a25611ba7565b5b828204905092915050565b6000611a3c82611ac9565b9150611a4783611ac9565b9250817fffffffffffffffffffffffffffffffffffffffffffffffffffffffffffffffff0483118215151615611a8057611a7f611b78565b5b828202905092915050565b6000611a9682611aa9565b9050919050565b60008115159050919050565b600073ffffffffffffffffffffffffffffffffffffffff82169050919050565b6000819050919050565b82818337600083830152505050565b60005b83811015611b00578082015181840152602081019050611ae5565b83811115611b0f576000848401525b50505050565b60006002820490506001821680611b2d57607f821691505b60208210811415611b4157611b40611bd6565b5b50919050565b611b5082611c48565b810181811067ffffffffffffffff82111715611b6f57611b6e611c05565b5b80604052505050565b7f4e487b7100000000000000000000000000000000000000000000000000000000600052601160045260246000fd5b7f4e487b7100000000000000000000000000000000000000000000000000000000600052601260045260246000fd5b7f4e487b7100000000000000000000000000000000000000000000000000000000600052602260045260246000fd5b7f4e487b7100000000000000000000000000000000000000000000000000000000600052604160045260246000fd5b600080fd5b600080fd5b600080fd5b600080fd5b6000601f19601f8301169050919050565b7f596f75206861766520616c726561647920766f7465642e000000000000000000600082015250565b7f4a6f696e207468652044414f20746f206361737420796f757220766f7465732e600082015250565b7f6e6f7420656e6f75676820746f6b656e00000000000000000000000000000000600082015250565b7f4465636973696f6e206973206d61646520616c72656164792e00000000000000600082015250565b7f6e6f7420656e6f7567682076616c756500000000000000000000000000000000600082015250565b611d2f81611a9d565b8114611d3a57600080fd5b50565b611d4681611ac9565b8114611d5157600080fd5b5056fea264697066735822122019c16bad0dfe477d4ad186950dc962515402d7a75e876ae5db4969ce7512252d64736f6c63430008070033",
  "linkReferences": {},
  "deployedLinkReferences": {}
}