{
  "_format": "hh-sol-artifact-1",
  "contractName": "FactStation",
  "sourceName": "contracts/FactStation.sol",
  "abi": [
    {
      "inputs": [],
      "stateMutability": "nonpayable",
      "type": "constructor"
    },
    {
      "anonymous": false,
      "inputs": [
        {
          "indexed": false,
          "internalType": "address",
          "name": "_buyer",
          "type": "address"
        },
        {
          "indexed": false,
          "internalType": "uint256",
          "name": "_amount",
          "type": "uint256"
        }
      ],
      "name": "Sell",
      "type": "event"
    },
    {
      "inputs": [
        {
          "internalType": "uint256",
          "name": "_numberOfTokens",
          "type": "uint256"
        }
      ],
      "name": "buyTokens",
      "outputs": [],
      "stateMutability": "payable",
      "type": "function"
    },
    {
      "inputs": [
        {
          "internalType": "string",
          "name": "_CID",
          "type": "string"
        },
        {
          "internalType": "uint256",
          "name": "_totalVotes",
          "type": "uint256"
        },
        {
          "internalType": "uint256",
          "name": "_yesVotes",
          "type": "uint256"
        },
        {
          "internalType": "uint256",
          "name": "_noVotes",
          "type": "uint256"
        }
      ],
      "name": "createPost",
      "outputs": [],
      "stateMutability": "nonpayable",
      "type": "function"
    },
    {
      "inputs": [
        {
          "internalType": "uint256",
          "name": "_id",
          "type": "uint256"
        }
      ],
      "name": "decision",
      "outputs": [],
      "stateMutability": "nonpayable",
      "type": "function"
    },
    {
      "inputs": [],
      "name": "expertIdCounter",
      "outputs": [
        {
          "internalType": "uint256",
          "name": "",
          "type": "uint256"
        }
      ],
      "stateMutability": "view",
      "type": "function"
    },
    {
      "inputs": [],
      "name": "getMyPostsIds",
      "outputs": [
        {
          "internalType": "uint256[]",
          "name": "",
          "type": "uint256[]"
        }
      ],
      "stateMutability": "view",
      "type": "function"
    },
    {
      "inputs": [],
      "name": "getMyVotedPostIds",
      "outputs": [
        {
          "internalType": "uint256[]",
          "name": "",
          "type": "uint256[]"
        }
      ],
      "stateMutability": "view",
      "type": "function"
    },
    {
      "inputs": [
        {
          "internalType": "uint256",
          "name": "_id",
          "type": "uint256"
        }
      ],
      "name": "getPost",
      "outputs": [
        {
          "components": [
            {
              "internalType": "uint256",
              "name": "postId",
              "type": "uint256"
            },
            {
              "internalType": "address",
              "name": "creator",
              "type": "address"
            },
            {
              "internalType": "uint256",
              "name": "timeCreated",
              "type": "uint256"
            },
            {
              "internalType": "uint256",
              "name": "closingTime",
              "type": "uint256"
            },
            {
              "internalType": "string",
              "name": "CID",
              "type": "string"
            },
            {
              "internalType": "uint256",
              "name": "totalVotes",
              "type": "uint256"
            },
            {
              "internalType": "uint256",
              "name": "yesVotes",
              "type": "uint256"
            },
            {
              "internalType": "uint256",
              "name": "noVotes",
              "type": "uint256"
            },
            {
              "internalType": "bool",
              "name": "isVerified",
              "type": "bool"
            },
            {
              "internalType": "string",
              "name": "status",
              "type": "string"
            }
          ],
          "internalType": "struct FactStation.Posts",
          "name": "",
          "type": "tuple"
        }
      ],
      "stateMutability": "view",
      "type": "function"
    },
    {
      "inputs": [],
      "name": "getTotalPosts",
      "outputs": [
        {
          "internalType": "uint256",
          "name": "",
          "type": "uint256"
        }
      ],
      "stateMutability": "view",
      "type": "function"
    },
    {
      "inputs": [],
      "name": "postIdCounter",
      "outputs": [
        {
          "internalType": "uint256",
          "name": "",
          "type": "uint256"
        }
      ],
      "stateMutability": "view",
      "type": "function"
    },
    {
      "inputs": [],
      "name": "tokensSold",
      "outputs": [
        {
          "internalType": "uint256",
          "name": "",
          "type": "uint256"
        }
      ],
      "stateMutability": "view",
      "type": "function"
    },
    {
      "inputs": [
        {
          "internalType": "uint256",
          "name": "_id",
          "type": "uint256"
        },
        {
          "internalType": "uint256",
          "name": "_status",
          "type": "uint256"
        }
      ],
      "name": "vote",
      "outputs": [],
      "stateMutability": "nonpayable",
      "type": "function"
    }
  ],
  "bytecode": "0x608060405260b460095573d64db5e13532838e0d7c4431b345e29ea3cc376e600b60006101000a81548173ffffffffffffffffffffffffffffffffffffffff021916908373ffffffffffffffffffffffffffffffffffffffff16021790555034801561006a57600080fd5b50336000806101000a81548173ffffffffffffffffffffffffffffffffffffffff021916908373ffffffffffffffffffffffffffffffffffffffff160217905550611c65806100ba6000396000f3fe60806040526004361061009c5760003560e01c80635fe226b4116100645780635fe226b41461017b5780636a571859146101a65780637f7b0fae146101d1578063a83a475c146101fa578063a9f2a30614610223578063b384abef1461024e5761009c565b80630d38f051146100a15780633610724e146100cc57806340731c24146100e857806340a8c42314610125578063518ab2a814610150575b600080fd5b3480156100ad57600080fd5b506100b6610277565b6040516100c391906116ca565b60405180910390f35b6100e660048036038101906100e1919061137d565b61030c565b005b3480156100f457600080fd5b5061010f600480360381019061010a919061137d565b6106e7565b60405161011c919061178c565b60405180910390f35b34801561013157600080fd5b5061013a6108e6565b60405161014791906117ae565b60405180910390f35b34801561015c57600080fd5b506101656108ec565b60405161017291906117ae565b60405180910390f35b34801561018757600080fd5b506101906108f2565b60405161019d91906117ae565b60405180910390f35b3480156101b257600080fd5b506101bb6108fc565b6040516101c891906117ae565b60405180910390f35b3480156101dd57600080fd5b506101f860048036038101906101f391906112fa565b610902565b005b34801561020657600080fd5b50610221600480360381019061021c919061137d565b610b23565b005b34801561022f57600080fd5b50610238610da5565b60405161024591906116ca565b60405180910390f35b34801561025a57600080fd5b50610275600480360381019061027091906113d7565b610e3a565b005b6060600660003373ffffffffffffffffffffffffffffffffffffffff1673ffffffffffffffffffffffffffffffffffffffff16815260200190815260200160002080548060200260200160405190810160405280929190818152602001828054801561030257602002820191906000526020600020905b8154815260200190600101908083116102ee575b5050505050905090565b600b60009054906101000a900473ffffffffffffffffffffffffffffffffffffffff1673ffffffffffffffffffffffffffffffffffffffff16634b94f50e6040518163ffffffff1660e01b815260040160206040518083038186803b15801561037457600080fd5b505afa158015610388573d6000803e3d6000fd5b505050506040513d601f19601f820116820180604052508101906103ac91906113aa565b816103b7919061190c565b34146103f8576040517f08c379a00000000000000000000000000000000000000000000000000000000081526004016103ef9061176c565b60405180910390fd5b80600b60009054906101000a900473ffffffffffffffffffffffffffffffffffffffff1673ffffffffffffffffffffffffffffffffffffffff1663c71daccb6040518163ffffffff1660e01b815260040160206040518083038186803b15801561046157600080fd5b505afa158015610475573d6000803e3d6000fd5b505050506040513d601f19601f8201168201806040525081019061049991906113aa565b10156104da576040517f08c379a00000000000000000000000000000000000000000000000000000000081526004016104d19061172c565b60405180910390fd5b600b60009054906101000a900473ffffffffffffffffffffffffffffffffffffffff1673ffffffffffffffffffffffffffffffffffffffff1663a9059cbb33836040518363ffffffff1660e01b81526004016105379291906116a1565b602060405180830381600087803b15801561055157600080fd5b505af1158015610565573d6000803e3d6000fd5b505050506040513d601f19601f8201168201806040525081019061058991906112cd565b50806003600082825461059c9190611885565b925050819055507f5e5e995ce3133561afceaa51a9a154d5db228cd7525d34df5185582c18d3df0933826040516105d49291906116a1565b60405180910390a16001600260008282546105ef9190611885565b92505081905550604051806040016040528060025481526020013373ffffffffffffffffffffffffffffffffffffffff168152506008600060025481526020019081526020016000206000820151816000015560208201518160010160006101000a81548173ffffffffffffffffffffffffffffffffffffffff021916908373ffffffffffffffffffffffffffffffffffffffff1602179055509050506001600460003373ffffffffffffffffffffffffffffffffffffffff1673ffffffffffffffffffffffffffffffffffffffff16815260200190815260200160002060006101000a81548160ff02191690831515021790555050565b6106ef611110565b6005600083815260200190815260200160002060405180610140016040529081600082015481526020016001820160009054906101000a900473ffffffffffffffffffffffffffffffffffffffff1673ffffffffffffffffffffffffffffffffffffffff1673ffffffffffffffffffffffffffffffffffffffff1681526020016002820154815260200160038201548152602001600482018054610792906119f0565b80601f01602080910402602001604051908101604052809291908181526020018280546107be906119f0565b801561080b5780601f106107e05761010080835404028352916020019161080b565b820191906000526020600020905b8154815290600101906020018083116107ee57829003601f168201915b505050505081526020016005820154815260200160068201548152602001600782015481526020016008820160009054906101000a900460ff1615151515815260200160098201805461085d906119f0565b80601f0160208091040260200160405190810160405280929190818152602001828054610889906119f0565b80156108d65780601f106108ab576101008083540402835291602001916108d6565b820191906000526020600020905b8154815290600101906020018083116108b957829003601f168201915b5050505050815250509050919050565b60025481565b60035481565b6000600154905090565b60015481565b60018060008282546109149190611885565b9250508190555060405180610140016040528060015481526020013373ffffffffffffffffffffffffffffffffffffffff1681526020014281526020016009544261095f9190611885565b81526020018581526020018481526020018381526020018281526020016000151581526020016040518060400160405280600781526020017f50656e64696e67000000000000000000000000000000000000000000000000008152508152506005600060015481526020019081526020016000206000820151816000015560208201518160010160006101000a81548173ffffffffffffffffffffffffffffffffffffffff021916908373ffffffffffffffffffffffffffffffffffffffff16021790555060408201518160020155606082015181600301556080820151816004019080519060200190610a5492919061117b565b5060a0820151816005015560c0820151816006015560e082015181600701556101008201518160080160006101000a81548160ff021916908315150217905550610120820151816009019080519060200190610ab192919061117b565b50905050600660003373ffffffffffffffffffffffffffffffffffffffff1673ffffffffffffffffffffffffffffffffffffffff168152602001908152602001600020600154908060018154018082558091505060019003906000526020600020016000909190919091505550505050565b60056000828152602001908152602001600020600301544211610b4557600080fd5b600015156005600083815260200190815260200160002060080160009054906101000a900460ff16151514610baf576040517f08c379a0000000000000000000000000000000000000000000000000000000008152600401610ba69061174c565b60405180910390fd5b6050606460056000848152602001908152602001600020600501546005600085815260200190815260200160002060060154610beb91906118db565b610bf5919061190c565b1115610c60576040518060400160405280600881526020017f5665726966696564000000000000000000000000000000000000000000000000815250600560008381526020019081526020016000206009019080519060200190610c5a92919061117b565b50610d73565b6050606460056000848152602001908152602001600020600501546005600085815260200190815260200160002060070154610c9c91906118db565b610ca6919061190c565b1115610d11576040518060400160405280600481526020017f46616b6500000000000000000000000000000000000000000000000000000000815250600560008381526020019081526020016000206009019080519060200190610d0b92919061117b565b50610d72565b6040518060400160405280600c81526020017f5175657374696f6e61626c650000000000000000000000000000000000000000815250600560008381526020019081526020016000206009019080519060200190610d7092919061117b565b505b5b60016005600083815260200190815260200160002060080160006101000a81548160ff02191690831515021790555050565b6060600760003373ffffffffffffffffffffffffffffffffffffffff1673ffffffffffffffffffffffffffffffffffffffff168152602001908152602001600020805480602002602001604051908101604052809291908181526020018280548015610e3057602002820191906000526020600020905b815481526020019060010190808311610e1c575b5050505050905090565b600460003373ffffffffffffffffffffffffffffffffffffffff1673ffffffffffffffffffffffffffffffffffffffff16815260200190815260200160002060009054906101000a900460ff16610ec6576040517f08c379a0000000000000000000000000000000000000000000000000000000008152600401610ebd9061170c565b60405180910390fd5b8160001515600a60003373ffffffffffffffffffffffffffffffffffffffff1673ffffffffffffffffffffffffffffffffffffffff168152602001908152602001600020600083815260200190815260200160002060009054906101000a900460ff16151514610f6b576040517f08c379a0000000000000000000000000000000000000000000000000000000008152600401610f62906116ec565b60405180910390fd5b6001821415610fd5576001600560008581526020019081526020016000206006016000828254610f9b9190611885565b925050819055506001600560008581526020019081526020016000206005016000828254610fc99190611885565b9250508190555061103c565b600282141561103b5760016005600085815260200190815260200160002060070160008282546110059190611885565b9250508190555060016005600085815260200190815260200160002060050160008282546110339190611885565b925050819055505b5b600760003373ffffffffffffffffffffffffffffffffffffffff1673ffffffffffffffffffffffffffffffffffffffff1681526020019081526020016000208390806001815401808255809150506001900390600052602060002001600090919091909150556001600a60003373ffffffffffffffffffffffffffffffffffffffff1673ffffffffffffffffffffffffffffffffffffffff168152602001908152602001600020600085815260200190815260200160002060006101000a81548160ff021916908315150217905550505050565b60405180610140016040528060008152602001600073ffffffffffffffffffffffffffffffffffffffff168152602001600081526020016000815260200160608152602001600081526020016000815260200160008152602001600015158152602001606081525090565b828054611187906119f0565b90600052602060002090601f0160209004810192826111a957600085556111f0565b82601f106111c257805160ff19168380011785556111f0565b828001600101855582156111f0579182015b828111156111ef5782518255916020019190600101906111d4565b5b5090506111fd9190611201565b5090565b5b8082111561121a576000816000905550600101611202565b5090565b600061123161122c846117ee565b6117c9565b90508281526020810184848401111561124d5761124c611b14565b5b6112588482856119ae565b509392505050565b60008151905061126f81611c01565b92915050565b600082601f83011261128a57611289611b0f565b5b813561129a84826020860161121e565b91505092915050565b6000813590506112b281611c18565b92915050565b6000815190506112c781611c18565b92915050565b6000602082840312156112e3576112e2611b1e565b5b60006112f184828501611260565b91505092915050565b6000806000806080858703121561131457611313611b1e565b5b600085013567ffffffffffffffff81111561133257611331611b19565b5b61133e87828801611275565b945050602061134f878288016112a3565b9350506040611360878288016112a3565b9250506060611371878288016112a3565b91505092959194509250565b60006020828403121561139357611392611b1e565b5b60006113a1848285016112a3565b91505092915050565b6000602082840312156113c0576113bf611b1e565b5b60006113ce848285016112b8565b91505092915050565b600080604083850312156113ee576113ed611b1e565b5b60006113fc858286016112a3565b925050602061140d858286016112a3565b9150509250929050565b60006114238383611683565b60208301905092915050565b61143881611966565b82525050565b61144781611966565b82525050565b60006114588261182f565b6114628185611852565b935061146d8361181f565b8060005b8381101561149e5781516114858882611417565b975061149083611845565b925050600181019050611471565b5085935050505092915050565b6114b481611978565b82525050565b60006114c58261183a565b6114cf8185611863565b93506114df8185602086016119bd565b6114e881611b23565b840191505092915050565b6000611500601783611874565b915061150b82611b34565b602082019050919050565b6000611523602083611874565b915061152e82611b5d565b602082019050919050565b6000611546601083611874565b915061155182611b86565b602082019050919050565b6000611569601983611874565b915061157482611baf565b602082019050919050565b600061158c601083611874565b915061159782611bd8565b602082019050919050565b6000610140830160008301516115bb6000860182611683565b5060208301516115ce602086018261142f565b5060408301516115e16040860182611683565b5060608301516115f46060860182611683565b506080830151848203608086015261160c82826114ba565b91505060a083015161162160a0860182611683565b5060c083015161163460c0860182611683565b5060e083015161164760e0860182611683565b5061010083015161165c6101008601826114ab565b5061012083015184820361012086015261167682826114ba565b9150508091505092915050565b61168c816119a4565b82525050565b61169b816119a4565b82525050565b60006040820190506116b6600083018561143e565b6116c36020830184611692565b9392505050565b600060208201905081810360008301526116e4818461144d565b905092915050565b60006020820190508181036000830152611705816114f3565b9050919050565b6000602082019050818103600083015261172581611516565b9050919050565b6000602082019050818103600083015261174581611539565b9050919050565b600060208201905081810360008301526117658161155c565b9050919050565b600060208201905081810360008301526117858161157f565b9050919050565b600060208201905081810360008301526117a681846115a2565b905092915050565b60006020820190506117c36000830184611692565b92915050565b60006117d36117e4565b90506117df8282611a22565b919050565b6000604051905090565b600067ffffffffffffffff82111561180957611808611ae0565b5b61181282611b23565b9050602081019050919050565b6000819050602082019050919050565b600081519050919050565b600081519050919050565b6000602082019050919050565b600082825260208201905092915050565b600082825260208201905092915050565b600082825260208201905092915050565b6000611890826119a4565b915061189b836119a4565b9250827fffffffffffffffffffffffffffffffffffffffffffffffffffffffffffffffff038211156118d0576118cf611a53565b5b828201905092915050565b60006118e6826119a4565b91506118f1836119a4565b92508261190157611900611a82565b5b828204905092915050565b6000611917826119a4565b9150611922836119a4565b9250817fffffffffffffffffffffffffffffffffffffffffffffffffffffffffffffffff048311821515161561195b5761195a611a53565b5b828202905092915050565b600061197182611984565b9050919050565b60008115159050919050565b600073ffffffffffffffffffffffffffffffffffffffff82169050919050565b6000819050919050565b82818337600083830152505050565b60005b838110156119db5780820151818401526020810190506119c0565b838111156119ea576000848401525b50505050565b60006002820490506001821680611a0857607f821691505b60208210811415611a1c57611a1b611ab1565b5b50919050565b611a2b82611b23565b810181811067ffffffffffffffff82111715611a4a57611a49611ae0565b5b80604052505050565b7f4e487b7100000000000000000000000000000000000000000000000000000000600052601160045260246000fd5b7f4e487b7100000000000000000000000000000000000000000000000000000000600052601260045260246000fd5b7f4e487b7100000000000000000000000000000000000000000000000000000000600052602260045260246000fd5b7f4e487b7100000000000000000000000000000000000000000000000000000000600052604160045260246000fd5b600080fd5b600080fd5b600080fd5b600080fd5b6000601f19601f8301169050919050565b7f596f75206861766520616c726561647920766f7465642e000000000000000000600082015250565b7f4a6f696e207468652044414f20746f206361737420796f757220766f7465732e600082015250565b7f6e6f7420656e6f75676820746f6b656e00000000000000000000000000000000600082015250565b7f4465636973696f6e206973206d61646520616c72656164792e00000000000000600082015250565b7f6e6f7420656e6f7567682076616c756500000000000000000000000000000000600082015250565b611c0a81611978565b8114611c1557600080fd5b50565b611c21816119a4565b8114611c2c57600080fd5b5056fea264697066735822122035cef7979b7db03960332b7bb8a3c5263496aa185b7fd0d2c2740e49dd46541064736f6c63430008070033",
  "linkReferences": {},
  "deployedLinkReferences": {}
}